:100000000C942A000C943C000C943C000C943C0092
:100010000C949F000C943C000C943C000C943C000D
:100020000C943C000C943C000C943C000C943C0060
:100030000C943C000C943C000C943C000C943C0050
:100040000C943C000C943C000C943C000C943C0040
:100050000C943C0011241FBECFE5D8E0DEBFCDBF1D
:1000600010E0A0E6B0E001C01D92AD36B107E1F7A7
:100070000E943E000C94BC010C940000DF93CF93CF
:10008000CDB7DEB7A7E3B0E0E7E3F0E080818860BA
:100090008C93A3E5B0E0E3E5F0E0808188648C9385
:1000A000A3E5B0E0E3E5F0E0808180628C93A3E516
:1000B000B0E0E3E5F0E0808181608C93ECE5F0E076
:1000C0008FEF8083A1E3B0E0E1E3F0E080818F6314
:1000D0008C93A4E3B0E0E4E3F0E080818C6F8C9338
:1000E000A2E3B0E0E2E3F0E080818F638C93A5E3CC
:1000F000B0E0E5E3F0E080818C6F8C93A5E4B0E0A4
:10010000E5E4F0E0808188608C93A5E4B0E0E5E46C
:10011000F0E0808181608C93E3E4F0E087EC808301
:10012000A9E5B0E0E9E5F0E0808180688C937894FF
:100130008FEF809367008FEF80936300F9CF1F925A
:100140000F920FB60F9211248F939F93AF93BF938B
:10015000EF93FF93DF93CF93CDB7DEB7909160001D
:1001600080916700981740F0A2E3B0E0E2E3F0E08E
:10017000808181608C9307C0A2E3B0E0E2E3F0E00D
:1001800080818E7F8C93909160008091620098179F
:1001900040F0A2E3B0E0E2E3F0E0808182608C9383
:1001A00007C0A2E3B0E0E2E3F0E080818D7F8C93B2
:1001B0009091600080916500981740F0A2E3B0E054
:1001C000E2E3F0E0808184608C9307C0A2E3B0E0BA
:1001D000E2E3F0E080818B7F8C93909160008091CE
:1001E0006C00981740F0A2E3B0E0E2E3F0E0808119
:1001F00088608C9307C0A2E3B0E0E2E3F0E0808186
:10020000877F8C939091600080916800981740F0F0
:10021000A2E3B0E0E2E3F0E0808180618C9307C06C
:10022000A2E3B0E0E2E3F0E080818F7E8C939091D6
:10023000600080916300981740F0A2E3B0E0E2E331
:10024000F0E0808180628C9307C0A2E3B0E0E2E33B
:10025000F0E080818F7D8C939091600080916400AC
:10026000981740F0A5E3B0E0E5E3F0E0808184601A
:100270008C9307C0A5E3B0E0E5E3F0E080818B7FDD
:100280008C939091600080916B00981740F0A5E3EB
:10029000B0E0E5E3F0E0808188608C9307C0A5E3DF
:1002A000B0E0E5E3F0E08081877F8C93909160007F
:1002B00080916600981740F0A5E3B0E0E5E3F0E038
:1002C000808180618C9307C0A5E3B0E0E5E3F0E0B6
:1002D00080818F7E8C939091600080916900981747
:1002E00040F0A5E3B0E0E5E3F0E0808180628C932C
:1002F00007C0A5E3B0E0E5E3F0E080818F7D8C935B
:100300009091600080916A00981740F0A5E3B0E0FA
:10031000E5E3F0E0808180648C9307C0A5E3B0E062
:10032000E5E3F0E080818F7B8C9390916000809179
:100330006100981740F0A5E3B0E0E5E3F0E08081CC
:1003400080688C9307C0A5E3B0E0E5E3F0E080812E
:100350008F778C93809160008F5F80936000CF9146
:10036000DF91FF91EF91BF91AF919F918F910F908E
:0C0370000FBE0F901F901895F894FFCF5F
:00000001FF
